{
  "contractName": "Arithmetic",
  "abi": [
    {
      "constant": false,
      "inputs": [],
      "name": "test_stop",
      "outputs": [],
      "payable": false,
      "stateMutability": "nonpayable",
      "type": "function"
    },
    {
      "constant": false,
      "inputs": [],
      "name": "test_revert",
      "outputs": [],
      "payable": false,
      "stateMutability": "nonpayable",
      "type": "function"
    },
    {
      "constant": false,
      "inputs": [],
      "name": "test_invalid",
      "outputs": [],
      "payable": false,
      "stateMutability": "nonpayable",
      "type": "function"
    },
    {
      "constant": false,
      "inputs": [],
      "name": "testOpcodes",
      "outputs": [],
      "payable": false,
      "stateMutability": "nonpayable",
      "type": "function"
    }
  ],
  "bytecode": "0x608060405234801561001057600080fd5b5060a28061001f6000396000f3fe6080604052348015600f57600080fd5b506004361060465760003560e01c8063391521f414604b57806355313dea1460535780636d3d141614605b578063b9d1e5aa146063575b600080fd5b6051606b565b005b6059606d565b005b6061606f565b005b60696074565b005b565b005b600080fd5bfefea165627a7a72305820eebfb4492e29d09afe7cc97b5eea280d26d47b00ae3d225a34f95339a03f41010029",
  "source": "pragma solidity <0.6.0;\n\nimport \"./Abstracts/TestContractInterface.sol\";\n\n//if any of these fail ya'll are fucked :'(\n/*\n* this contract deals with all the arithmetic opcodes that when popped off the stack\n* return either the solution, 1 ,or 0\n*/\ncontract Arithmetic is TestContractInterface {\n\n  function testOpcodes() public {\n\n    assembly{\n      //addition\n      pop(add(2,3))\n\n      //subtraction\n      pop(sub(3,1))\n\n      //multiplication\n      pop(mul(2,2))\n\n      //division\n      pop(div(4,2))\n\n      //division for signed numbers in two's complement\n      pop(sdiv(4,2))\n\n      //modulus\n      pop(mod(3,2))\n\n      //modulus for signed numbers in two's complement\n      pop(smod(3,2))\n\n      //x to the power of y\n      pop(exp(2,3))\n\n      //(x + y) % m with arbitrary precision arithmetics\n      pop(addmod(5, 3, 4))\n\n      //(x * y) % m with arbitrary precision arithmetics\n      pop(mulmod(3, 2, 4))\n\n    }\n\n  }\n\n}\n\n",
  "sourcePath": "/home/stephanie/chainsafe/attalus/solidity/contracts/arithmetic.sol",
  "compiler": {
    "name": "solc",
    "version": "0.5.8+commit.23d335f2.Emscripten.clang"
  },
  "schemaVersion": "3.0.11",
  "updatedAt": "2019-06-21T18:00:59.126Z",
  "devdoc": {
    "methods": {}
  },
  "userdoc": {
    "methods": {}
  }
}