{
  "contractName": "BooleanOperators",
  "abi": [
    {
      "constant": false,
      "inputs": [],
      "name": "test_stop",
      "outputs": [],
      "payable": false,
      "stateMutability": "nonpayable",
      "type": "function"
    },
    {
      "constant": false,
      "inputs": [],
      "name": "test_revert",
      "outputs": [],
      "payable": false,
      "stateMutability": "nonpayable",
      "type": "function"
    },
    {
      "constant": false,
      "inputs": [],
      "name": "test_invalid",
      "outputs": [],
      "payable": false,
      "stateMutability": "nonpayable",
      "type": "function"
    },
    {
      "constant": false,
      "inputs": [],
      "name": "testOpcodes",
      "outputs": [],
      "payable": false,
      "stateMutability": "nonpayable",
      "type": "function"
    }
  ],
  "bytecode": "0x608060405234801561001057600080fd5b5060a28061001f6000396000f3fe6080604052348015600f57600080fd5b506004361060465760003560e01c8063391521f414604b57806355313dea1460535780636d3d141614605b578063b9d1e5aa146063575b600080fd5b6051606b565b005b6059606d565b005b6061606f565b005b60696074565b005b565b005b600080fd5bfefea165627a7a723058201a9ea18f99354c7cc02568533095b3b259e8ebc28ec8461981635835a0bfc15f0029",
  "source": "pragma solidity <0.6.0;\n\nimport \"./Abstracts/TestContractInterface.sol\";\n\n//if any of these fail ya'll are fucked :'(\n/*\n* this contract deals with all the arithmetic opcodes that when popped off the stack\n* return either the solution, 1 ,or 0\n*/\ncontract BooleanOperators is TestContractInterface {\n\n  function testOpcodes() public {\n\n     //not\n     assembly { pop( not(0x1f)) }\n\n     //and\n     assembly { pop(and(2,3)) }\n\n     //or\n     assembly { pop(or(3,3)) }\n\n     //xor\n     assembly { pop(xor(3,3)) }\n\n  }\n\n}",
  "sourcePath": "/home/stephanie/chainsafe/attalus/solidity/contracts/booleanOperators.sol",
  "compiler": {
    "name": "solc",
    "version": "0.5.8+commit.23d335f2.Emscripten.clang"
  },
  "schemaVersion": "3.0.11",
  "updatedAt": "2019-06-21T17:50:59.031Z",
  "devdoc": {
    "methods": {}
  },
  "userdoc": {
    "methods": {}
  }
}