{
  "contractName": "CallOOG",
  "abi": [
    {
      "constant": false,
      "inputs": [],
      "name": "test_stop",
      "outputs": [],
      "payable": false,
      "stateMutability": "nonpayable",
      "type": "function"
    },
    {
      "constant": false,
      "inputs": [],
      "name": "test_revert",
      "outputs": [],
      "payable": false,
      "stateMutability": "nonpayable",
      "type": "function"
    },
    {
      "constant": false,
      "inputs": [],
      "name": "test_invalid",
      "outputs": [],
      "payable": false,
      "stateMutability": "nonpayable",
      "type": "function"
    },
    {
      "inputs": [],
      "payable": false,
      "stateMutability": "nonpayable",
      "type": "constructor"
    },
    {
      "constant": false,
      "inputs": [],
      "name": "testOpcodes",
      "outputs": [],
      "payable": false,
      "stateMutability": "nonpayable",
      "type": "function"
    }
  ],
  "bytecode": "0x608060405234801561001057600080fd5b5060405161001d9061007e565b604051809103906000f080158015610039573d6000803e3d6000fd5b506000806101000a81548173ffffffffffffffffffffffffffffffffffffffff021916908373ffffffffffffffffffffffffffffffffffffffff16021790555061008a565b6052806101d983390190565b610140806100996000396000f3fe608060405234801561001057600080fd5b506004361061004c5760003560e01c8063391521f41461005157806355313dea1461005b5780636d3d141614610065578063b9d1e5aa1461006f575b600080fd5b610059610079565b005b61006361010b565b005b61006d61010d565b005b610077610112565b005b60008060009054906101000a900473ffffffffffffffffffffffffffffffffffffffff169050600060405180807f697353616d654164647265737328616464726573732c61646472657373290000815250601e019050604051809103902090506000339050604051828152816004820152816024820152606481016040526020816044836000886101f4f15050505050565b005b600080fd5bfefea165627a7a72305820ae14b2e411c228d4db212e1057ee3680a62b8784a74d413ca9497506bca17ce400296080604052348015600f57600080fd5b50603580601d6000396000f3fe6080604052600080fdfea165627a7a723058201ddef558ee1a541c84d2306fce8b0c4e35863b35649e130ef4f9186fd24857000029",
  "source": "import \"./Abstracts/CalledContract.sol\";\nimport \"./Abstracts/TestContractInterface.sol\";\n\ncontract CallOOG is CalledContract, TestContractInterface {\n\n  CalledContract calledContract;\n\n  constructor() public {\n    calledContract = new CalledContract();\n  }\n\n  modifier Owner (address _owner) {\n    require(msg.sender == _owner);\n    _;\n  }\n\n  function testOpcodes() public {\n\n    address contractAddr = address(calledContract);\n    bytes4 sig = bytes4(keccak256(\"isSameAddress(address,address)\")); //Function signature\n    address a = msg.sender;\n\n     assembly {\n         let ptr := mload(0x40)       //Find empty storage location using \"free memory pointer\"\n         mstore(ptr,sig)              //Place signature at begining of empty storage\n         mstore(add(ptr,0x04),a)      //First address parameter. just after signature\n         mstore(add(ptr,0x24),a)      //2nd address parameter - first padded. add 32 bytes (not 20 bytes)\n         mstore(0x40,add(ptr,0x64))   //Reset free pointer before the function call so we can actually use it!\n                                      //New free pointer position after the output values of the called function.\n\n         let success := call(\n                         500,          //500 gas, we want to force an OOG in this contract so explicitly have it be less than 700\n                         contractAddr, //To addr\n                         0,            //No wei passed\n                         ptr,          //Inputs are at location of ptr\n                         0x44,         //Inputs size two padded, so 68 bytes\n                         ptr,          //Store output over input\n                         0x20)         //Output is 32 bytes long\n     }\n\n  }\n\n}",
  "sourcePath": "/home/stephanie/chainsafe/attalus/solidity/contracts/CallOOG.sol",
  "compiler": {
    "name": "solc",
    "version": "0.5.8+commit.23d335f2.Emscripten.clang"
  },
  "schemaVersion": "3.0.11",
  "updatedAt": "2019-06-21T17:50:59.028Z",
  "devdoc": {
    "methods": {}
  },
  "userdoc": {
    "methods": {}
  }
}