{
  "contractName": "Sha3",
  "abi": [
    {
      "constant": false,
      "inputs": [],
      "name": "test_stop",
      "outputs": [],
      "payable": false,
      "stateMutability": "nonpayable",
      "type": "function"
    },
    {
      "constant": false,
      "inputs": [],
      "name": "test_revert",
      "outputs": [],
      "payable": false,
      "stateMutability": "nonpayable",
      "type": "function"
    },
    {
      "constant": false,
      "inputs": [],
      "name": "test_invalid",
      "outputs": [],
      "payable": false,
      "stateMutability": "nonpayable",
      "type": "function"
    },
    {
      "constant": false,
      "inputs": [],
      "name": "testOpcodes",
      "outputs": [],
      "payable": false,
      "stateMutability": "nonpayable",
      "type": "function"
    }
  ],
  "bytecode": "0x608060405234801561001057600080fd5b5060a28061001f6000396000f3fe6080604052348015600f57600080fd5b506004361060465760003560e01c8063391521f414604b57806355313dea1460535780636d3d141614605b578063b9d1e5aa146063575b600080fd5b6051606b565b005b6059606d565b005b6061606f565b005b60696074565b005b565b005b600080fd5bfefea165627a7a723058206264588d9c390f5da13e6b0db8b009d356715222dd56e5a40a2e5486a107ed4e0029",
  "source": "import \"./Abstracts/TestContractInterface.sol\";\n\ncontract Sha3 is TestContractInterface {\n\n\n  function testOpcodes() public {\n\n    assembly{\n\n    pop(calldataload(0))\n\n    }\n\n  }\n\n}",
  "sourcePath": "/home/stephanie/chainsafe/attalus/solidity/contracts/sha3.sol",
  "compiler": {
    "name": "solc",
    "version": "0.5.8+commit.23d335f2.Emscripten.clang"
  },
  "schemaVersion": "3.0.11",
  "updatedAt": "2019-06-21T17:50:59.037Z",
  "devdoc": {
    "methods": {}
  },
  "userdoc": {
    "methods": {}
  }
}